{
  "contractName": "ContractTokenSale",
  "abi": [
    {
      "inputs": [
        {
          "internalType": "contract ContractToken",
          "name": "_tokenContract",
          "type": "address"
        },
        {
          "internalType": "uint256",
          "name": "_tokenPrice",
          "type": "uint256"
        }
      ],
      "stateMutability": "nonpayable",
      "type": "constructor"
    },
    {
      "anonymous": false,
      "inputs": [
        {
          "indexed": false,
          "internalType": "address",
          "name": "buyer",
          "type": "address"
        },
        {
          "indexed": false,
          "internalType": "uint256",
          "name": "amount",
          "type": "uint256"
        }
      ],
      "name": "Sell",
      "type": "event"
    },
    {
      "inputs": [],
      "name": "sold",
      "outputs": [
        {
          "internalType": "uint256",
          "name": "",
          "type": "uint256"
        }
      ],
      "stateMutability": "view",
      "type": "function",
      "constant": true
    },
    {
      "inputs": [],
      "name": "tokenContract",
      "outputs": [
        {
          "internalType": "contract ContractToken",
          "name": "",
          "type": "address"
        }
      ],
      "stateMutability": "view",
      "type": "function",
      "constant": true
    },
    {
      "inputs": [],
      "name": "tokenPrice",
      "outputs": [
        {
          "internalType": "uint256",
          "name": "",
          "type": "uint256"
        }
      ],
      "stateMutability": "view",
      "type": "function",
      "constant": true
    },
    {
      "inputs": [
        {
          "internalType": "uint256",
          "name": "_numberOfTokens",
          "type": "uint256"
        }
      ],
      "name": "buy",
      "outputs": [],
      "stateMutability": "payable",
      "type": "function",
      "payable": true
    },
    {
      "inputs": [],
      "name": "end",
      "outputs": [],
      "stateMutability": "nonpayable",
      "type": "function"
    }
  ],
  "bytecode": "0x608060405234801561001057600080fd5b50604051610a54380380610a548339818101604052810190610032919061016c565b33600160006101000a81548173ffffffffffffffffffffffffffffffffffffffff021916908373ffffffffffffffffffffffffffffffffffffffff160217905550816000806101000a81548173ffffffffffffffffffffffffffffffffffffffff021916908373ffffffffffffffffffffffffffffffffffffffff1602179055508060028190555050506101ac565b600080fd5b600073ffffffffffffffffffffffffffffffffffffffff82169050919050565b60006100f1826100c6565b9050919050565b6000610103826100e6565b9050919050565b610113816100f8565b811461011e57600080fd5b50565b6000815190506101308161010a565b92915050565b6000819050919050565b61014981610136565b811461015457600080fd5b50565b60008151905061016681610140565b92915050565b60008060408385031215610183576101826100c1565b5b600061019185828601610121565b92505060206101a285828601610157565b9150509250929050565b610899806101bb6000396000f3fe60806040526004361061004a5760003560e01c806302c7e7af1461004f57806355a373d61461007a5780637ff9b596146100a5578063d96a094a146100d0578063efbe1c1c146100ec575b600080fd5b34801561005b57600080fd5b50610064610103565b604051610071919061051b565b60405180910390f35b34801561008657600080fd5b5061008f610109565b60405161009c91906105b5565b60405180910390f35b3480156100b157600080fd5b506100ba61012d565b6040516100c7919061051b565b60405180910390f35b6100ea60048036038101906100e59190610601565b610133565b005b3480156100f857600080fd5b506101016102f5565b005b60035481565b60008054906101000a900473ffffffffffffffffffffffffffffffffffffffff1681565b60025481565b610148600254826104ec90919063ffffffff16565b341461015357600080fd5b8060008054906101000a900473ffffffffffffffffffffffffffffffffffffffff1673ffffffffffffffffffffffffffffffffffffffff166370a08231306040518263ffffffff1660e01b81526004016101ad919061064f565b602060405180830381865afa1580156101ca573d6000803e3d6000fd5b505050506040513d601f19601f820116820180604052508101906101ee919061067f565b10156101f957600080fd5b60008054906101000a900473ffffffffffffffffffffffffffffffffffffffff1673ffffffffffffffffffffffffffffffffffffffff1663a9059cbb33836040518363ffffffff1660e01b81526004016102549291906106ac565b6020604051808303816000875af1158015610273573d6000803e3d6000fd5b505050506040513d601f19601f82011682018060405250810190610297919061070d565b6102a057600080fd5b80600360008282546102b29190610769565b925050819055507f5e5e995ce3133561afceaa51a9a154d5db228cd7525d34df5185582c18d3df0933826040516102ea9291906106ac565b60405180910390a150565b600160009054906101000a900473ffffffffffffffffffffffffffffffffffffffff1673ffffffffffffffffffffffffffffffffffffffff163373ffffffffffffffffffffffffffffffffffffffff161461034f57600080fd5b60008054906101000a900473ffffffffffffffffffffffffffffffffffffffff1673ffffffffffffffffffffffffffffffffffffffff1663a9059cbb600160009054906101000a900473ffffffffffffffffffffffffffffffffffffffff1660008054906101000a900473ffffffffffffffffffffffffffffffffffffffff1673ffffffffffffffffffffffffffffffffffffffff166370a08231306040518263ffffffff1660e01b8152600401610407919061064f565b602060405180830381865afa158015610424573d6000803e3d6000fd5b505050506040513d601f19601f82011682018060405250810190610448919061067f565b6040518363ffffffff1660e01b81526004016104659291906107e0565b6020604051808303816000875af1158015610484573d6000803e3d6000fd5b505050506040513d601f19601f820116820180604052508101906104a8919061070d565b6104b157600080fd5b600160009054906101000a900473ffffffffffffffffffffffffffffffffffffffff1673ffffffffffffffffffffffffffffffffffffffff16ff5b600081836104fa9190610809565b905092915050565b6000819050919050565b61051581610502565b82525050565b6000602082019050610530600083018461050c565b92915050565b600073ffffffffffffffffffffffffffffffffffffffff82169050919050565b6000819050919050565b600061057b61057661057184610536565b610556565b610536565b9050919050565b600061058d82610560565b9050919050565b600061059f82610582565b9050919050565b6105af81610594565b82525050565b60006020820190506105ca60008301846105a6565b92915050565b600080fd5b6105de81610502565b81146105e957600080fd5b50565b6000813590506105fb816105d5565b92915050565b600060208284031215610617576106166105d0565b5b6000610625848285016105ec565b91505092915050565b600061063982610536565b9050919050565b6106498161062e565b82525050565b60006020820190506106646000830184610640565b92915050565b600081519050610679816105d5565b92915050565b600060208284031215610695576106946105d0565b5b60006106a38482850161066a565b91505092915050565b60006040820190506106c16000830185610640565b6106ce602083018461050c565b9392505050565b60008115159050919050565b6106ea816106d5565b81146106f557600080fd5b50565b600081519050610707816106e1565b92915050565b600060208284031215610723576107226105d0565b5b6000610731848285016106f8565b91505092915050565b7f4e487b7100000000000000000000000000000000000000000000000000000000600052601160045260246000fd5b600061077482610502565b915061077f83610502565b9250827fffffffffffffffffffffffffffffffffffffffffffffffffffffffffffffffff038211156107b4576107b361073a565b5b828201905092915050565b60006107ca82610582565b9050919050565b6107da816107bf565b82525050565b60006040820190506107f560008301856107d1565b610802602083018461050c565b9392505050565b600061081482610502565b915061081f83610502565b9250817fffffffffffffffffffffffffffffffffffffffffffffffffffffffffffffffff04831182151516156108585761085761073a565b5b82820290509291505056fea26469706673582212200ed762916c2c2caec3a8df464416cd8d866b15eda5ef9b29f9507b646c50465b64736f6c634300080f0033",
  "immutableReferences": {},
  "source": "pragma solidity >=0.4.22 <0.9.0;\n\nimport \"./ContractToken.sol\";\nimport \"@openzeppelin/contracts/utils/math/SafeMath.sol\";\n\ncontract ContractTokenSale {\n    ContractToken public tokenContract;\n    using SafeMath for uint256;\n    address payable admin;\n    uint256 public tokenPrice;\n    uint256 public sold;\n\n    event Sell(address buyer, uint256 amount);\n\n    constructor(ContractToken _tokenContract, uint256 _tokenPrice) {\n        admin = payable(msg.sender);\n        tokenContract = _tokenContract;\n        tokenPrice = _tokenPrice;\n    }\n\n    function buy(uint256 _numberOfTokens) public payable {\n        // require value is equal to tokens\n        require(msg.value == _numberOfTokens.mul(tokenPrice));\n\n        // require contract has enough tokens\n        require(tokenContract.balanceOf(address(this)) >= _numberOfTokens);\n\n        // require successful transfer\n        require(tokenContract.transfer(msg.sender, _numberOfTokens));\n\n        // track token sold\n        sold += _numberOfTokens;\n        emit Sell(msg.sender, _numberOfTokens);\n    }\n\n    // end of sale\n    function end() public {\n        // require admin\n        require(msg.sender == admin);\n        // transfer remaining tokens to admin\n        require(tokenContract.transfer(admin, tokenContract.balanceOf(address(this))));\n        // destroy contract\n        // Consider using Open Zeppelin Pausable.sol instead.\n        selfdestruct(admin);\n    }\n}\n",
  "sourcePath": "/truffle/vue3-truffle/contracts/ContractTokenSale.sol",
  "compiler": {
    "name": "solc",
    "version": "0.8.15+commit.e14f2714.Emscripten.clang"
  },
  "schemaVersion": "3.4.8",
  "updatedAt": "2022-10-05T10:22:27.348Z",
  "networkType": "ethereum",
  "devdoc": {
    "kind": "dev",
    "methods": {},
    "version": 1
  },
  "userdoc": {
    "kind": "user",
    "methods": {},
    "version": 1
  }
}